{
  "contractName": "Payment",
  "abi": [
    {
      "anonymous": false,
      "inputs": [
        {
          "indexed": false,
          "internalType": "uint256",
          "name": "id1",
          "type": "uint256"
        },
        {
          "indexed": false,
          "internalType": "uint256",
          "name": "id2",
          "type": "uint256"
        }
      ],
      "name": "AccountClosed",
      "type": "event"
    },
    {
      "anonymous": false,
      "inputs": [
        {
          "indexed": false,
          "internalType": "uint256",
          "name": "id",
          "type": "uint256"
        },
        {
          "indexed": false,
          "internalType": "uint256",
          "name": "partner_id",
          "type": "uint256"
        },
        {
          "indexed": false,
          "internalType": "uint256",
          "name": "balance",
          "type": "uint256"
        }
      ],
      "name": "AccountCreated",
      "type": "event"
    },
    {
      "anonymous": false,
      "inputs": [
        {
          "indexed": false,
          "internalType": "uint256",
          "name": "id1",
          "type": "uint256"
        },
        {
          "indexed": false,
          "internalType": "uint256",
          "name": "id2",
          "type": "uint256"
        },
        {
          "indexed": false,
          "internalType": "uint256",
          "name": "amount",
          "type": "uint256"
        }
      ],
      "name": "AmountSent",
      "type": "event"
    },
    {
      "anonymous": false,
      "inputs": [
        {
          "indexed": false,
          "internalType": "uint256",
          "name": "id",
          "type": "uint256"
        },
        {
          "indexed": false,
          "internalType": "string",
          "name": "name",
          "type": "string"
        }
      ],
      "name": "UserRegistered",
      "type": "event"
    },
    {
      "inputs": [
        {
          "internalType": "uint256",
          "name": "_id",
          "type": "uint256"
        }
      ],
      "name": "doesUserExist",
      "outputs": [
        {
          "internalType": "bool",
          "name": "",
          "type": "bool"
        }
      ],
      "stateMutability": "view",
      "type": "function",
      "constant": true
    },
    {
      "inputs": [
        {
          "internalType": "uint256",
          "name": "_id",
          "type": "uint256"
        },
        {
          "internalType": "string",
          "name": "_name",
          "type": "string"
        }
      ],
      "name": "registerUser",
      "outputs": [],
      "stateMutability": "nonpayable",
      "type": "function"
    },
    {
      "inputs": [
        {
          "internalType": "uint256",
          "name": "_id1",
          "type": "uint256"
        },
        {
          "internalType": "uint256",
          "name": "_id2",
          "type": "uint256"
        },
        {
          "internalType": "uint256",
          "name": "_balance",
          "type": "uint256"
        }
      ],
      "name": "createAcc",
      "outputs": [],
      "stateMutability": "nonpayable",
      "type": "function"
    },
    {
      "inputs": [
        {
          "internalType": "uint256",
          "name": "start",
          "type": "uint256"
        },
        {
          "internalType": "uint256",
          "name": "end",
          "type": "uint256"
        }
      ],
      "name": "getShortestPath",
      "outputs": [
        {
          "internalType": "uint256[]",
          "name": "",
          "type": "uint256[]"
        }
      ],
      "stateMutability": "view",
      "type": "function",
      "constant": true
    },
    {
      "inputs": [
        {
          "internalType": "uint256[]",
          "name": "path",
          "type": "uint256[]"
        },
        {
          "internalType": "uint256",
          "name": "_amount",
          "type": "uint256"
        }
      ],
      "name": "canBeSent",
      "outputs": [
        {
          "internalType": "bool",
          "name": "",
          "type": "bool"
        }
      ],
      "stateMutability": "view",
      "type": "function",
      "constant": true
    },
    {
      "inputs": [
        {
          "internalType": "uint256[]",
          "name": "path",
          "type": "uint256[]"
        },
        {
          "internalType": "uint256",
          "name": "_amount",
          "type": "uint256"
        }
      ],
      "name": "sendAlongPath",
      "outputs": [],
      "stateMutability": "nonpayable",
      "type": "function"
    },
    {
      "inputs": [
        {
          "internalType": "uint256",
          "name": "_id1",
          "type": "uint256"
        },
        {
          "internalType": "uint256",
          "name": "_id2",
          "type": "uint256"
        },
        {
          "internalType": "uint256",
          "name": "_amount",
          "type": "uint256"
        }
      ],
      "name": "sendAmount",
      "outputs": [],
      "stateMutability": "nonpayable",
      "type": "function"
    },
    {
      "inputs": [
        {
          "internalType": "uint256",
          "name": "_id1",
          "type": "uint256"
        },
        {
          "internalType": "uint256",
          "name": "_id2",
          "type": "uint256"
        }
      ],
      "name": "closeAccount",
      "outputs": [],
      "stateMutability": "nonpayable",
      "type": "function"
    }
  ],
  "bytecode": "0x608060405234801561001057600080fd5b506120bf806100206000396000f3fe608060405234801561001057600080fd5b50600436106100885760003560e01c8063b54834811161005b578063b548348114610125578063bd45d6eb14610141578063c924e1061461015d578063f943c9551461017957610088565b80631c57333e1461008d5780632ee23e6d146100a95780633f3078df146100d957806363a57998146100f5575b600080fd5b6100a760048036038101906100a29190611549565b6101a9565b005b6100c360048036038101906100be91906115a5565b6102e2565b6040516100d091906116a3565b60405180910390f35b6100f360048036038101906100ee91906116c5565b610890565b005b61010f600480360381019061010a9190611718565b610a36565b60405161011c9190611760565b60405180910390f35b61013f600480360381019061013a91906116c5565b610a98565b005b61015b600480360381019061015691906115a5565b610c66565b005b61017760048036038101906101729190611843565b61106b565b005b610193600480360381019061018e9190611843565b61126f565b6040516101a09190611760565b60405180910390f35b6101b282610a36565b156101f2576040517f08c379a00000000000000000000000000000000000000000000000000000000081526004016101e9906118fc565b60405180910390fd5b600260405180604001604052808481526020018381525090806001815401808255809150506001900390600052602060002090600202016000909190919091506000820151816000015560208201518160010190816102519190611b33565b5050506003829080600181540180825580915050600190039060005260206000200160009091909190915055600160028054905061028f9190611c34565b600080848152602001908152602001600020819055507f4728104627c0775370e4d3628beda1b22b0bef17538f721f8e4d92976ce2082382826040516102d6929190611cda565b60405180910390a15050565b6060600060038054905067ffffffffffffffff8111156103055761030461141e565b5b6040519080825280602002602001820160405280156103335781602001602082028036833780820191505090505b509050600060038054905067ffffffffffffffff8111156103575761035661141e565b5b6040519080825280602002602001820160405280156103855781602001602082028036833780820191505090505b509050600060038054905067ffffffffffffffff8111156103a9576103a861141e565b5b6040519080825280602002602001820160405280156103d75781602001602082028036833780820191505090505b50905060005b6003805490508110156104a45760008482815181106103ff576103fe611d0a565b5b6020026020010190151590811515815250507fffffffffffffffffffffffffffffffffffffffffffffffffffffffffffffffff83828151811061044557610444611d0a565b5b6020026020010181815250507fffffffffffffffffffffffffffffffffffffffffffffffffffffffffffffffff82828151811061048557610484611d0a565b5b602002602001018181525050808061049c90611d39565b9150506103dd565b50600060038054905067ffffffffffffffff8111156104c6576104c561141e565b5b6040519080825280602002602001820160405280156104f45781602001602082028036833780820191505090505b5090506000808883828061050790611d39565b93508151811061051a57610519611d0a565b5b6020026020010181815250506001868a8151811061053b5761053a611d0a565b5b6020026020010190151590811515815250506000848a8151811061056257610561611d0a565b5b60200260200101818152505088858a8151811061058257610581611d0a565b5b6020026020010181815250505b808210156108375760008383806105a590611d39565b9450815181106105b8576105b7611d0a565b5b6020026020010151905060005b600160008381526020019081526020016000208054905081101561083057600060016000848152602001908152602001600020828154811061060a57610609611d0a565b5b906000526020600020906002020160000154905088818151811061063157610630611d0a565b5b602002602001015161081c57600189828151811061065257610651611d0a565b5b602002602001019015159081151581525050600187848151811061067957610678611d0a565b5b602002602001015161068b9190611d81565b87828151811061069e5761069d611d0a565b5b602002602001018181525050828882815181106106be576106bd611d0a565b5b602002602001018181525050808685806106d790611d39565b9650815181106106ea576106e9611d0a565b5b6020026020010181815250508a810361081b5760006001888d8151811061071457610713611d0a565b5b60200260200101516107269190611d81565b67ffffffffffffffff81111561073f5761073e61141e565b5b60405190808252806020026020018201604052801561076d5781602001602082028036833780820191505090505b5090508b93506000888d8151811061078857610787611d0a565b5b602002602001015190505b8d85146107e857848282806107a790611db5565b9350815181106107ba576107b9611d0a565b5b6020026020010181815250508985815181106107d9576107d8611d0a565b5b60200260200101519450610793565b8d8282815181106107fc576107fb611d0a565b5b602002602001018181525050819b50505050505050505050505061088a565b5b50808061082890611d39565b9150506105c5565b505061058f565b600067ffffffffffffffff8111156108525761085161141e565b5b6040519080825280602002602001820160405280156108805781602001602082028036833780820191505090505b5096505050505050505b92915050565b61089983610a36565b6108d8576040517f08c379a00000000000000000000000000000000000000000000000000000000081526004016108cf90611e2a565b60405180910390fd5b6108e182610a36565b610920576040517f08c379a000000000000000000000000000000000000000000000000000000000815260040161091790611e96565b60405180910390fd5b60008060008581526020019081526020016000205490506000806000858152602001908152602001600020549050600061095a83836102e2565b905060008151116109a0576040517f08c379a000000000000000000000000000000000000000000000000000000000815260040161099790611f02565b60405180910390fd5b6109aa818561126f565b6109e9576040517f08c379a00000000000000000000000000000000000000000000000000000000081526004016109e090611f6e565b60405180910390fd5b6109f3818561106b565b7f410dac27e3bfc4e168f49534cfee8b60e4f692e93c9ec7c4526c088398896b5b868686604051610a2693929190611f8e565b60405180910390a1505050505050565b600080600090505b600380549050811015610a8d578260038281548110610a6057610a5f611d0a565b5b906000526020600020015403610a7a576001915050610a93565b8080610a8590611d39565b915050610a3e565b50600090505b919050565b610aa183610a36565b610ae0576040517f08c379a0000000000000000000000000000000000000000000000000000000008152600401610ad790611e2a565b60405180910390fd5b610ae982610a36565b610b28576040517f08c379a0000000000000000000000000000000000000000000000000000000008152600401610b1f90611e96565b60405180910390fd5b6000806000858152602001908152602001600020549050600080600085815260200190815260200160002054905060016000838152602001908152602001600020604051806040016040528083815260200185815250908060018154018082558091505060019003906000526020600020906002020160009091909190915060008201518160000155602082015181600101555050600160008281526020019081526020016000206040518060400160405280848152602001858152509080600181540180825580915050600190039060005260206000209060020201600090919091909150600082015181600001556020820151816001015550507f40bb7bf4c7f281ed15816d9be583f4a9c800fde6f80ff9d5bd68015b03f5695b858585604051610c5793929190611f8e565b60405180910390a15050505050565b610c6f82610a36565b610cae576040517f08c379a0000000000000000000000000000000000000000000000000000000008152600401610ca590611e2a565b60405180910390fd5b610cb781610a36565b610cf6576040517f08c379a0000000000000000000000000000000000000000000000000000000008152600401610ced90611e96565b60405180910390fd5b600080600084815260200190815260200160002054905060008060008481526020019081526020016000205490506000805b6001600085815260200190815260200160002080549050811015610e895782600160008681526020019081526020016000208281548110610d6c57610d6b611d0a565b5b90600052602060002090600202016000015403610e76576001915060016000858152602001908152602001600020600180600087815260200190815260200160002080549050610dbc9190611c34565b81548110610dcd57610dcc611d0a565b5b9060005260206000209060020201600160008681526020019081526020016000208281548110610e0057610dff611d0a565b5b9060005260206000209060020201600082015481600001556001820154816001015590505060016000858152602001908152602001600020805480610e4857610e47611fc5565b5b6001900381819060005260206000209060020201600080820160009055600182016000905550509055610e89565b8080610e8190611d39565b915050610d28565b5060005b6001600084815260200190815260200160002080549050811015610fea5783600160008581526020019081526020016000208281548110610ed157610ed0611d0a565b5b90600052602060002090600202016000015403610fd75760016000848152602001908152602001600020600180600086815260200190815260200160002080549050610f1d9190611c34565b81548110610f2e57610f2d611d0a565b5b9060005260206000209060020201600160008581526020019081526020016000208281548110610f6157610f60611d0a565b5b9060005260206000209060020201600082015481600001556001820154816001015590505060016000848152602001908152602001600020805480610fa957610fa8611fc5565b5b6001900381819060005260206000209060020201600080820160009055600182016000905550509055610fea565b8080610fe290611d39565b915050610e8d565b508061102b576040517f08c379a000000000000000000000000000000000000000000000000000000000815260040161102290612040565b60405180910390fd5b7fefbc56ab5dac29c99b9169c4c6fb4dc3c4ab6e793711f81bd6a426a99b9d77fc858560405161105c929190612060565b60405180910390a15050505050565b60005b6001835161107c9190611c34565b81101561126a57600083828151811061109857611097611d0a565b5b602002602001015190506000846001846110b29190611d81565b815181106110c3576110c2611d0a565b5b6020026020010151905060005b6001600084815260200190815260200160002080549050811015611190578160016000858152602001908152602001600020828154811061111457611113611d0a565b5b9060005260206000209060020201600001540361117d578460016000858152602001908152602001600020828154811061115157611150611d0a565b5b906000526020600020906002020160010160008282546111719190611c34565b92505081905550611190565b808061118890611d39565b9150506110d0565b5060005b600160008381526020019081526020016000208054905081101561125457826001600084815260200190815260200160002082815481106111d8576111d7611d0a565b5b90600052602060002090600202016000015403611241578460016000848152602001908152602001600020828154811061121557611214611d0a565b5b906000526020600020906002020160010160008282546112359190611d81565b92505081905550611254565b808061124c90611d39565b915050611194565b505050808061126290611d39565b91505061106e565b505050565b600080600090505b600184516112859190611c34565b8110156113ad5760008482815181106112a1576112a0611d0a565b5b602002602001015190506000856001846112bb9190611d81565b815181106112cc576112cb611d0a565b5b6020026020010151905060005b6001600084815260200190815260200160002080549050811015611397578160016000858152602001908152602001600020828154811061131d5761131c611d0a565b5b90600052602060002090600202016000015403611384578560016000858152602001908152602001600020828154811061135a57611359611d0a565b5b906000526020600020906002020160010154101561137f5760009450505050506113b3565b611397565b808061138f90611d39565b9150506112d9565b50505080806113a590611d39565b915050611277565b50600190505b92915050565b6000604051905090565b600080fd5b600080fd5b6000819050919050565b6113e0816113cd565b81146113eb57600080fd5b50565b6000813590506113fd816113d7565b92915050565b600080fd5b600080fd5b6000601f19601f8301169050919050565b7f4e487b7100000000000000000000000000000000000000000000000000000000600052604160045260246000fd5b6114568261140d565b810181811067ffffffffffffffff821117156114755761147461141e565b5b80604052505050565b60006114886113b9565b9050611494828261144d565b919050565b600067ffffffffffffffff8211156114b4576114b361141e565b5b6114bd8261140d565b9050602081019050919050565b82818337600083830152505050565b60006114ec6114e784611499565b61147e565b90508281526020810184848401111561150857611507611408565b5b6115138482856114ca565b509392505050565b600082601f8301126115305761152f611403565b5b81356115408482602086016114d9565b91505092915050565b600080604083850312156115605761155f6113c3565b5b600061156e858286016113ee565b925050602083013567ffffffffffffffff81111561158f5761158e6113c8565b5b61159b8582860161151b565b9150509250929050565b600080604083850312156115bc576115bb6113c3565b5b60006115ca858286016113ee565b92505060206115db858286016113ee565b9150509250929050565b600081519050919050565b600082825260208201905092915050565b6000819050602082019050919050565b61161a816113cd565b82525050565b600061162c8383611611565b60208301905092915050565b6000602082019050919050565b6000611650826115e5565b61165a81856115f0565b935061166583611601565b8060005b8381101561169657815161167d8882611620565b975061168883611638565b925050600181019050611669565b5085935050505092915050565b600060208201905081810360008301526116bd8184611645565b905092915050565b6000806000606084860312156116de576116dd6113c3565b5b60006116ec868287016113ee565b93505060206116fd868287016113ee565b925050604061170e868287016113ee565b9150509250925092565b60006020828403121561172e5761172d6113c3565b5b600061173c848285016113ee565b91505092915050565b60008115159050919050565b61175a81611745565b82525050565b60006020820190506117756000830184611751565b92915050565b600067ffffffffffffffff8211156117965761179561141e565b5b602082029050602081019050919050565b600080fd5b60006117bf6117ba8461177b565b61147e565b905080838252602082019050602084028301858111156117e2576117e16117a7565b5b835b8181101561180b57806117f788826113ee565b8452602084019350506020810190506117e4565b5050509392505050565b600082601f83011261182a57611829611403565b5b813561183a8482602086016117ac565b91505092915050565b6000806040838503121561185a576118596113c3565b5b600083013567ffffffffffffffff811115611878576118776113c8565b5b61188485828601611815565b9250506020611895858286016113ee565b9150509250929050565b600082825260208201905092915050565b7f5573657220616c72656164792072656769737465726564000000000000000000600082015250565b60006118e660178361189f565b91506118f1826118b0565b602082019050919050565b60006020820190508181036000830152611915816118d9565b9050919050565b600081519050919050565b7f4e487b7100000000000000000000000000000000000000000000000000000000600052602260045260246000fd5b6000600282049050600182168061196e57607f821691505b60208210810361198157611980611927565b5b50919050565b60008190508160005260206000209050919050565b60006020601f8301049050919050565b600082821b905092915050565b6000600883026119e97fffffffffffffffffffffffffffffffffffffffffffffffffffffffffffffffff826119ac565b6119f386836119ac565b95508019841693508086168417925050509392505050565b6000819050919050565b6000611a30611a2b611a26846113cd565b611a0b565b6113cd565b9050919050565b6000819050919050565b611a4a83611a15565b611a5e611a5682611a37565b8484546119b9565b825550505050565b600090565b611a73611a66565b611a7e818484611a41565b505050565b5b81811015611aa257611a97600082611a6b565b600181019050611a84565b5050565b601f821115611ae757611ab881611987565b611ac18461199c565b81016020851015611ad0578190505b611ae4611adc8561199c565b830182611a83565b50505b505050565b600082821c905092915050565b6000611b0a60001984600802611aec565b1980831691505092915050565b6000611b238383611af9565b9150826002028217905092915050565b611b3c8261191c565b67ffffffffffffffff811115611b5557611b5461141e565b5b611b5f8254611956565b611b6a828285611aa6565b600060209050601f831160018114611b9d5760008415611b8b578287015190505b611b958582611b17565b865550611bfd565b601f198416611bab86611987565b60005b82811015611bd357848901518255600182019150602085019450602081019050611bae565b86831015611bf05784890151611bec601f891682611af9565b8355505b6001600288020188555050505b505050505050565b7f4e487b7100000000000000000000000000000000000000000000000000000000600052601160045260246000fd5b6000611c3f826113cd565b9150611c4a836113cd565b9250828203905081811115611c6257611c61611c05565b5b92915050565b611c71816113cd565b82525050565b60005b83811015611c95578082015181840152602081019050611c7a565b60008484015250505050565b6000611cac8261191c565b611cb6818561189f565b9350611cc6818560208601611c77565b611ccf8161140d565b840191505092915050565b6000604082019050611cef6000830185611c68565b8181036020830152611d018184611ca1565b90509392505050565b7f4e487b7100000000000000000000000000000000000000000000000000000000600052603260045260246000fd5b6000611d44826113cd565b91507fffffffffffffffffffffffffffffffffffffffffffffffffffffffffffffffff8203611d7657611d75611c05565b5b600182019050919050565b6000611d8c826113cd565b9150611d97836113cd565b9250828201905080821115611daf57611dae611c05565b5b92915050565b6000611dc0826113cd565b915060008203611dd357611dd2611c05565b5b600182039050919050565b7f5573657231206e6f742072656769737465726564000000000000000000000000600082015250565b6000611e1460148361189f565b9150611e1f82611dde565b602082019050919050565b60006020820190508181036000830152611e4381611e07565b9050919050565b7f5573657232206e6f742072656769737465726564000000000000000000000000600082015250565b6000611e8060148361189f565b9150611e8b82611e4a565b602082019050919050565b60006020820190508181036000830152611eaf81611e73565b9050919050565b7f4e6f207061746820666f756e6400000000000000000000000000000000000000600082015250565b6000611eec600d8361189f565b9150611ef782611eb6565b602082019050919050565b60006020820190508181036000830152611f1b81611edf565b9050919050565b7f416d6f756e742063616e6e6f742062652073656e740000000000000000000000600082015250565b6000611f5860158361189f565b9150611f6382611f22565b602082019050919050565b60006020820190508181036000830152611f8781611f4b565b9050919050565b6000606082019050611fa36000830186611c68565b611fb06020830185611c68565b611fbd6040830184611c68565b949350505050565b7f4e487b7100000000000000000000000000000000000000000000000000000000600052603160045260246000fd5b7f4163636f756e74206e6f7420666f756e64000000000000000000000000000000600082015250565b600061202a60118361189f565b915061203582611ff4565b602082019050919050565b600060208201905081810360008301526120598161201d565b9050919050565b60006040820190506120756000830185611c68565b6120826020830184611c68565b939250505056fea264697066735822122056a1b97fdeaa31aef32b73012a88f8d295df8c2053cc00c02350f4ce3a9ca77a64736f6c63430008130033",
  "immutableReferences": {},
  "source": "// SPDX-License-Identifier: MIT\npragma solidity >=0.4.22 <0.9.0;\n\ncontract Payment {\n  struct User{\n    uint id;\n    string name;\n  }\n  struct Account{\n    uint partner_id;\n    uint balance;\n  }\n  mapping(uint => uint) id_index_map;\n  mapping(uint => Account[]) accounts;\n  User[] users;\n  uint[] user_ids;\n\n  event UserRegistered(uint id, string name);\n  event AccountCreated(uint id, uint partner_id, uint balance);\n  event AmountSent(uint id1, uint id2, uint amount);\n  event AccountClosed(uint id1, uint id2);\n\n  function doesUserExist(uint _id) public view returns(bool){\n    for(uint i = 0; i < user_ids.length; i++){\n      if(user_ids[i] == _id){\n        return true;\n      }\n    }\n    return false;\n  }\n  function registerUser(uint _id, string memory _name) public {\n    require(!doesUserExist(_id), \"User already registered\");\n    users.push(User(_id, _name));\n    user_ids.push(_id);\n    id_index_map[_id] = users.length - 1;\n    emit UserRegistered(_id, _name);\n  } \n\n  function createAcc(uint _id1, uint _id2, uint _balance) public {\n    require(doesUserExist(_id1), \"User1 not registered\");\n    require(doesUserExist(_id2), \"User2 not registered\");\n    uint index1 = id_index_map[_id1];\n    uint index2 = id_index_map[_id2];\n    accounts[index1].push(Account(index2, _balance));\n    accounts[index2].push(Account(index1, _balance));\n    emit AccountCreated(_id1, _id2, _balance);\n  }\n\n  function getShortestPath(uint start,uint end) public view returns(uint[] memory){\n    // use bfs to find the shortest path\n    bool[] memory visited = new bool[](user_ids.length);\n    uint[] memory parent = new uint[](user_ids.length);\n    uint[] memory distance = new uint[](user_ids.length);\n\n    for(uint i = 0; i < user_ids.length; i++){\n      visited[i] = false;\n      parent[i] = type(uint).max;\n      distance[i] = type(uint).max;\n    }\n\n    uint[] memory queue = new uint[](user_ids.length);\n    uint front = 0;\n    uint rear = 0;\n    queue[rear++] = start;\n\n    visited[start] = true;\n    distance[start] = 0;\n    parent[start] = start;\n\n    while(front < rear){\n      uint curr = queue[front++];\n      for(uint i = 0; i < accounts[curr].length; i++){\n        uint next = accounts[curr][i].partner_id;\n        if(!visited[next]){\n          visited[next] = true;\n          distance[next] = distance[curr] + 1;\n          parent[next] = curr;\n          queue[rear++] = next;\n          if(next == end){\n            uint[] memory path = new uint[](distance[end] + 1);\n            curr = end;\n            uint index = distance[end];\n            while(curr != start){\n              path[index--] = curr;\n              curr = parent[curr];\n            }\n            path[index] = start;\n            return path;\n          }\n        }\n      }\n    }\n    return new uint[](0);\n  }\n\n  function canBeSent(uint[] memory path, uint _amount) public view returns(bool){\n    for(uint i=0;i<(path.length-1);i++){\n      uint curr = path[i];\n      uint next = path[i+1];\n      for(uint j=0;j<accounts[curr].length;j++){\n        if(accounts[curr][j].partner_id == next){\n          if(accounts[curr][j].balance < _amount){\n            return false;\n          }\n          break;\n        }\n      }\n    }\n    return true;\n  }\n\n  function sendAlongPath(uint[] memory path, uint _amount) public {\n    for(uint i=0;i<(path.length-1);i++){\n      uint curr = path[i];\n      uint next = path[i+1];\n      for(uint j=0;j<accounts[curr].length;j++){\n        if(accounts[curr][j].partner_id == next){\n          accounts[curr][j].balance -= _amount;\n          break;\n        }\n      }\n      for(uint j=0;j<accounts[next].length;j++){\n        if(accounts[next][j].partner_id == curr){\n          accounts[next][j].balance += _amount;\n          break;\n        }\n      }\n    }\n  }\n\n\n\n  function sendAmount(uint _id1, uint _id2, uint _amount) public {\n    require(doesUserExist(_id1), \"User1 not registered\");\n    require(doesUserExist(_id2), \"User2 not registered\");\n    // 1. Find the shortest path between the two users\n    uint index1 = id_index_map[_id1];\n    uint index2 = id_index_map[_id2];\n    uint[] memory path = getShortestPath(index1, index2);\n    require(path.length > 0, \"No path found\");\n    // 2. Check if the amount can be sent\n    require(canBeSent(path, _amount), \"Amount cannot be sent\");\n    // 3. Send the amount\n    sendAlongPath(path, _amount);\n    emit AmountSent(_id1, _id2, _amount);\n  }\n\n  function closeAccount(uint _id1, uint _id2) public {\n    require(doesUserExist(_id1), \"User1 not registered\");\n    require(doesUserExist(_id2), \"User2 not registered\");\n    uint index1 = id_index_map[_id1];\n    uint index2 = id_index_map[_id2];\n    bool found = false;\n    for(uint i = 0; i < accounts[index1].length; i++){\n      if(accounts[index1][i].partner_id == index2){\n        found = true;\n        accounts[index1][i] = accounts[index1][accounts[index1].length - 1];\n        accounts[index1].pop();\n        break;\n      }\n    }\n    for(uint i = 0; i < accounts[index2].length; i++){\n      if(accounts[index2][i].partner_id == index1){\n        accounts[index2][i] = accounts[index2][accounts[index2].length - 1];\n        accounts[index2].pop();\n        break;\n      }\n    }\n    require(found, \"Account not found\");\n    emit AccountClosed(_id1, _id2);\n  }\n}\n",
  "sourcePath": "/Users/nsr/765/ass3/contracts/Payment.sol",
  "compiler": {
    "name": "solc",
    "version": "0.8.19+commit.7dd6d404.Emscripten.clang"
  },
  "schemaVersion": "3.4.13",
  "updatedAt": "2023-04-09T07:31:04.715Z",
  "networkType": "ethereum",
  "devdoc": {
    "kind": "dev",
    "methods": {},
    "version": 1
  },
  "userdoc": {
    "kind": "user",
    "methods": {},
    "version": 1
  }
}