{
  "contractName": "Payment",
  "abi": [
    {
      "anonymous": false,
      "inputs": [
        {
          "indexed": false,
          "internalType": "uint256",
          "name": "id1",
          "type": "uint256"
        },
        {
          "indexed": false,
          "internalType": "uint256",
          "name": "id2",
          "type": "uint256"
        }
      ],
      "name": "AccountClosed",
      "type": "event"
    },
    {
      "anonymous": false,
      "inputs": [
        {
          "indexed": false,
          "internalType": "uint256",
          "name": "id",
          "type": "uint256"
        },
        {
          "indexed": false,
          "internalType": "uint256",
          "name": "partner_id",
          "type": "uint256"
        },
        {
          "indexed": false,
          "internalType": "uint256",
          "name": "balance",
          "type": "uint256"
        }
      ],
      "name": "AccountCreated",
      "type": "event"
    },
    {
      "anonymous": false,
      "inputs": [
        {
          "indexed": false,
          "internalType": "uint256",
          "name": "id1",
          "type": "uint256"
        },
        {
          "indexed": false,
          "internalType": "uint256",
          "name": "id2",
          "type": "uint256"
        },
        {
          "indexed": false,
          "internalType": "uint256[]",
          "name": "path",
          "type": "uint256[]"
        }
      ],
      "name": "ShortestPath",
      "type": "event"
    },
    {
      "anonymous": false,
      "inputs": [
        {
          "indexed": false,
          "internalType": "bool",
          "name": "success",
          "type": "bool"
        },
        {
          "indexed": false,
          "internalType": "uint256",
          "name": "id1",
          "type": "uint256"
        },
        {
          "indexed": false,
          "internalType": "uint256",
          "name": "id2",
          "type": "uint256"
        },
        {
          "indexed": false,
          "internalType": "uint256",
          "name": "amount",
          "type": "uint256"
        },
        {
          "indexed": false,
          "internalType": "uint256[]",
          "name": "path",
          "type": "uint256[]"
        }
      ],
      "name": "TransactionStatus",
      "type": "event"
    },
    {
      "anonymous": false,
      "inputs": [
        {
          "indexed": false,
          "internalType": "uint256",
          "name": "id",
          "type": "uint256"
        },
        {
          "indexed": false,
          "internalType": "string",
          "name": "name",
          "type": "string"
        }
      ],
      "name": "UserRegistered",
      "type": "event"
    },
    {
      "inputs": [
        {
          "internalType": "uint256",
          "name": "_id",
          "type": "uint256"
        }
      ],
      "name": "doesUserExist",
      "outputs": [
        {
          "internalType": "bool",
          "name": "",
          "type": "bool"
        }
      ],
      "stateMutability": "view",
      "type": "function",
      "constant": true
    },
    {
      "inputs": [
        {
          "internalType": "uint256",
          "name": "_id",
          "type": "uint256"
        },
        {
          "internalType": "string",
          "name": "_name",
          "type": "string"
        }
      ],
      "name": "registerUser",
      "outputs": [],
      "stateMutability": "nonpayable",
      "type": "function"
    },
    {
      "inputs": [
        {
          "internalType": "uint256",
          "name": "_id1",
          "type": "uint256"
        },
        {
          "internalType": "uint256",
          "name": "_id2",
          "type": "uint256"
        },
        {
          "internalType": "uint256",
          "name": "_balance",
          "type": "uint256"
        }
      ],
      "name": "createAcc",
      "outputs": [],
      "stateMutability": "nonpayable",
      "type": "function"
    },
    {
      "inputs": [
        {
          "internalType": "uint256",
          "name": "start",
          "type": "uint256"
        },
        {
          "internalType": "uint256",
          "name": "end",
          "type": "uint256"
        },
        {
          "internalType": "uint256",
          "name": "amount",
          "type": "uint256"
        }
      ],
      "name": "getShortestPath",
      "outputs": [
        {
          "internalType": "uint256[]",
          "name": "",
          "type": "uint256[]"
        }
      ],
      "stateMutability": "nonpayable",
      "type": "function"
    },
    {
      "inputs": [
        {
          "internalType": "uint256[]",
          "name": "path",
          "type": "uint256[]"
        },
        {
          "internalType": "uint256",
          "name": "_amount",
          "type": "uint256"
        }
      ],
      "name": "canBeSent",
      "outputs": [
        {
          "internalType": "bool",
          "name": "",
          "type": "bool"
        }
      ],
      "stateMutability": "view",
      "type": "function",
      "constant": true
    },
    {
      "inputs": [
        {
          "internalType": "uint256[]",
          "name": "path",
          "type": "uint256[]"
        },
        {
          "internalType": "uint256",
          "name": "_amount",
          "type": "uint256"
        }
      ],
      "name": "sendAlongPath",
      "outputs": [],
      "stateMutability": "nonpayable",
      "type": "function"
    },
    {
      "inputs": [
        {
          "internalType": "uint256",
          "name": "_id1",
          "type": "uint256"
        },
        {
          "internalType": "uint256",
          "name": "_id2",
          "type": "uint256"
        },
        {
          "internalType": "uint256",
          "name": "_amount",
          "type": "uint256"
        }
      ],
      "name": "sendAmount",
      "outputs": [],
      "stateMutability": "nonpayable",
      "type": "function"
    },
    {
      "inputs": [
        {
          "internalType": "uint256",
          "name": "_id1",
          "type": "uint256"
        },
        {
          "internalType": "uint256",
          "name": "_id2",
          "type": "uint256"
        }
      ],
      "name": "closeAccount",
      "outputs": [],
      "stateMutability": "nonpayable",
      "type": "function"
    }
  ],
  "bytecode": "0x608060405234801561001057600080fd5b506121a6806100206000396000f3fe608060405234801561001057600080fd5b50600436106100885760003560e01c8063b54834811161005b578063b548348114610125578063bd45d6eb14610141578063c924e1061461015d578063f943c9551461017957610088565b80631c470c3c1461008d5780631c57333e146100bd5780633f3078df146100d957806363a57998146100f5575b600080fd5b6100a760048036038101906100a2919061152a565b6101a9565b6040516100b4919061163b565b60405180910390f35b6100d760048036038101906100d291906117a3565b61085c565b005b6100f360048036038101906100ee919061152a565b610995565b005b61010f600480360381019061010a91906117ff565b610b5d565b60405161011c9190611847565b60405180910390f35b61013f600480360381019061013a919061152a565b610bbf565b005b61015b60048036038101906101569190611862565b610d8d565b005b6101776004803603810190610172919061196a565b611192565b005b610193600480360381019061018e919061196a565b611396565b6040516101a09190611847565b60405180910390f35b6060600060038054905067ffffffffffffffff8111156101cc576101cb611678565b5b6040519080825280602002602001820160405280156101fa5781602001602082028036833780820191505090505b509050600060038054905067ffffffffffffffff81111561021e5761021d611678565b5b60405190808252806020026020018201604052801561024c5781602001602082028036833780820191505090505b509050600060038054905067ffffffffffffffff8111156102705761026f611678565b5b60405190808252806020026020018201604052801561029e5781602001602082028036833780820191505090505b50905060005b60038054905081101561036b5760008482815181106102c6576102c56119c6565b5b6020026020010190151590811515815250507fffffffffffffffffffffffffffffffffffffffffffffffffffffffffffffffff83828151811061030c5761030b6119c6565b5b6020026020010181815250507fffffffffffffffffffffffffffffffffffffffffffffffffffffffffffffffff82828151811061034c5761034b6119c6565b5b602002602001018181525050808061036390611a24565b9150506102a4565b50600060038054905067ffffffffffffffff81111561038d5761038c611678565b5b6040519080825280602002602001820160405280156103bb5781602001602082028036833780820191505090505b509050600080898382806103ce90611a24565b9350815181106103e1576103e06119c6565b5b6020026020010181815250506001868b81518110610402576104016119c6565b5b6020026020010190151590811515815250506000848b81518110610429576104286119c6565b5b60200260200101818152505089858b81518110610449576104486119c6565b5b6020026020010181815250505b8082101561077e57600083838061046c90611a24565b94508151811061047f5761047e6119c6565b5b6020026020010151905060005b60016000838152602001908152602001600020805490508110156107775760006001600084815260200190815260200160002082815481106104d1576104d06119c6565b5b90600052602060002090600202016000015490508881815181106104f8576104f76119c6565b5b6020026020010151610762578a60016000858152602001908152602001600020838154811061052a576105296119c6565b5b90600052602060002090600202016001015410156105485750610764565b600189828151811061055d5761055c6119c6565b5b6020026020010190151590811515815250506001878481518110610584576105836119c6565b5b60200260200101516105969190611a6c565b8782815181106105a9576105a86119c6565b5b602002602001018181525050828882815181106105c9576105c86119c6565b5b602002602001018181525050808685806105e290611a24565b9650815181106105f5576105f46119c6565b5b6020026020010181815250508b81036107615760006001888e8151811061061f5761061e6119c6565b5b60200260200101516106319190611a6c565b67ffffffffffffffff81111561064a57610649611678565b5b6040519080825280602002602001820160405280156106785781602001602082028036833780820191505090505b5090508c93506000888e81518110610693576106926119c6565b5b602002602001015190505b8e85146106f357848282806106b290611aa0565b9350815181106106c5576106c46119c6565b5b6020026020010181815250508985815181106106e4576106e36119c6565b5b6020026020010151945061069e565b8e828281518110610707576107066119c6565b5b6020026020010181815250507f95ae0e3e092b8f5cba5966f1ecb11177d4ade85dc0515e7c0ca2558a653c86298f8f8460405161074693929190611ad8565b60405180910390a1819b505050505050505050505050610855565b5b505b808061076f90611a24565b91505061048c565b5050610456565b7f95ae0e3e092b8f5cba5966f1ecb11177d4ade85dc0515e7c0ca2558a653c86298a8a600067ffffffffffffffff8111156107bc576107bb611678565b5b6040519080825280602002602001820160405280156107ea5781602001602082028036833780820191505090505b506040516107fa93929190611ad8565b60405180910390a1600067ffffffffffffffff81111561081d5761081c611678565b5b60405190808252806020026020018201604052801561084b5781602001602082028036833780820191505090505b5096505050505050505b9392505050565b61086582610b5d565b156108a5576040517f08c379a000000000000000000000000000000000000000000000000000000000815260040161089c90611b73565b60405180910390fd5b600260405180604001604052808481526020018381525090806001815401808255809150506001900390600052602060002090600202016000909190919091506000820151816000015560208201518160010190816109049190611daa565b505050600382908060018154018082558091505060019003906000526020600020016000909190919091505560016002805490506109429190611e7c565b600080848152602001908152602001600020819055507f4728104627c0775370e4d3628beda1b22b0bef17538f721f8e4d92976ce208238282604051610989929190611f13565b60405180910390a15050565b61099e83610b5d565b6109dd576040517f08c379a00000000000000000000000000000000000000000000000000000000081526004016109d490611f8f565b60405180910390fd5b6109e682610b5d565b610a25576040517f08c379a0000000000000000000000000000000000000000000000000000000008152600401610a1c90611ffb565b60405180910390fd5b600080600085815260200190815260200160002054905060008060008581526020019081526020016000205490506000610a608383866101a9565b90506000815103610ab3577fd20d3da8a2227b445917df978d31ae5c865631e689305f8e209ce666511a222d600087878785604051610aa395949392919061201b565b60405180910390a1505050610b58565b610abd8185611396565b15610b1457610acc8185611192565b7fd20d3da8a2227b445917df978d31ae5c865631e689305f8e209ce666511a222d600187878785604051610b0495949392919061201b565b60405180910390a1505050610b58565b7fd20d3da8a2227b445917df978d31ae5c865631e689305f8e209ce666511a222d600087878785604051610b4c95949392919061201b565b60405180910390a15050505b505050565b600080600090505b600380549050811015610bb4578260038281548110610b8757610b866119c6565b5b906000526020600020015403610ba1576001915050610bba565b8080610bac90611a24565b915050610b65565b50600090505b919050565b610bc883610b5d565b610c07576040517f08c379a0000000000000000000000000000000000000000000000000000000008152600401610bfe90611f8f565b60405180910390fd5b610c1082610b5d565b610c4f576040517f08c379a0000000000000000000000000000000000000000000000000000000008152600401610c4690611ffb565b60405180910390fd5b6000806000858152602001908152602001600020549050600080600085815260200190815260200160002054905060016000838152602001908152602001600020604051806040016040528083815260200185815250908060018154018082558091505060019003906000526020600020906002020160009091909190915060008201518160000155602082015181600101555050600160008281526020019081526020016000206040518060400160405280848152602001858152509080600181540180825580915050600190039060005260206000209060020201600090919091909150600082015181600001556020820151816001015550507f40bb7bf4c7f281ed15816d9be583f4a9c800fde6f80ff9d5bd68015b03f5695b858585604051610d7e93929190612075565b60405180910390a15050505050565b610d9682610b5d565b610dd5576040517f08c379a0000000000000000000000000000000000000000000000000000000008152600401610dcc90611f8f565b60405180910390fd5b610dde81610b5d565b610e1d576040517f08c379a0000000000000000000000000000000000000000000000000000000008152600401610e1490611ffb565b60405180910390fd5b600080600084815260200190815260200160002054905060008060008481526020019081526020016000205490506000805b6001600085815260200190815260200160002080549050811015610fb05782600160008681526020019081526020016000208281548110610e9357610e926119c6565b5b90600052602060002090600202016000015403610f9d576001915060016000858152602001908152602001600020600180600087815260200190815260200160002080549050610ee39190611e7c565b81548110610ef457610ef36119c6565b5b9060005260206000209060020201600160008681526020019081526020016000208281548110610f2757610f266119c6565b5b9060005260206000209060020201600082015481600001556001820154816001015590505060016000858152602001908152602001600020805480610f6f57610f6e6120ac565b5b6001900381819060005260206000209060020201600080820160009055600182016000905550509055610fb0565b8080610fa890611a24565b915050610e4f565b5060005b60016000848152602001908152602001600020805490508110156111115783600160008581526020019081526020016000208281548110610ff857610ff76119c6565b5b906000526020600020906002020160000154036110fe57600160008481526020019081526020016000206001806000868152602001908152602001600020805490506110449190611e7c565b81548110611055576110546119c6565b5b9060005260206000209060020201600160008581526020019081526020016000208281548110611088576110876119c6565b5b90600052602060002090600202016000820154816000015560018201548160010155905050600160008481526020019081526020016000208054806110d0576110cf6120ac565b5b6001900381819060005260206000209060020201600080820160009055600182016000905550509055611111565b808061110990611a24565b915050610fb4565b5080611152576040517f08c379a000000000000000000000000000000000000000000000000000000000815260040161114990612127565b60405180910390fd5b7fefbc56ab5dac29c99b9169c4c6fb4dc3c4ab6e793711f81bd6a426a99b9d77fc8585604051611183929190612147565b60405180910390a15050505050565b60005b600183516111a39190611e7c565b8110156113915760008382815181106111bf576111be6119c6565b5b602002602001015190506000846001846111d99190611a6c565b815181106111ea576111e96119c6565b5b6020026020010151905060005b60016000848152602001908152602001600020805490508110156112b7578160016000858152602001908152602001600020828154811061123b5761123a6119c6565b5b906000526020600020906002020160000154036112a45784600160008581526020019081526020016000208281548110611278576112776119c6565b5b906000526020600020906002020160010160008282546112989190611e7c565b925050819055506112b7565b80806112af90611a24565b9150506111f7565b5060005b600160008381526020019081526020016000208054905081101561137b57826001600084815260200190815260200160002082815481106112ff576112fe6119c6565b5b90600052602060002090600202016000015403611368578460016000848152602001908152602001600020828154811061133c5761133b6119c6565b5b9060005260206000209060020201600101600082825461135c9190611a6c565b9250508190555061137b565b808061137390611a24565b9150506112bb565b505050808061138990611a24565b915050611195565b505050565b600080600090505b600184516113ac9190611e7c565b8110156114d45760008482815181106113c8576113c76119c6565b5b602002602001015190506000856001846113e29190611a6c565b815181106113f3576113f26119c6565b5b6020026020010151905060005b60016000848152602001908152602001600020805490508110156114be5781600160008581526020019081526020016000208281548110611444576114436119c6565b5b906000526020600020906002020160000154036114ab5785600160008581526020019081526020016000208281548110611481576114806119c6565b5b90600052602060002090600202016001015410156114a65760009450505050506114da565b6114be565b80806114b690611a24565b915050611400565b50505080806114cc90611a24565b91505061139e565b50600190505b92915050565b6000604051905090565b600080fd5b600080fd5b6000819050919050565b611507816114f4565b811461151257600080fd5b50565b600081359050611524816114fe565b92915050565b600080600060608486031215611543576115426114ea565b5b600061155186828701611515565b935050602061156286828701611515565b925050604061157386828701611515565b9150509250925092565b600081519050919050565b600082825260208201905092915050565b6000819050602082019050919050565b6115b2816114f4565b82525050565b60006115c483836115a9565b60208301905092915050565b6000602082019050919050565b60006115e88261157d565b6115f28185611588565b93506115fd83611599565b8060005b8381101561162e57815161161588826115b8565b9750611620836115d0565b925050600181019050611601565b5085935050505092915050565b6000602082019050818103600083015261165581846115dd565b905092915050565b600080fd5b600080fd5b6000601f19601f8301169050919050565b7f4e487b7100000000000000000000000000000000000000000000000000000000600052604160045260246000fd5b6116b082611667565b810181811067ffffffffffffffff821117156116cf576116ce611678565b5b80604052505050565b60006116e26114e0565b90506116ee82826116a7565b919050565b600067ffffffffffffffff82111561170e5761170d611678565b5b61171782611667565b9050602081019050919050565b82818337600083830152505050565b6000611746611741846116f3565b6116d8565b90508281526020810184848401111561176257611761611662565b5b61176d848285611724565b509392505050565b600082601f83011261178a5761178961165d565b5b813561179a848260208601611733565b91505092915050565b600080604083850312156117ba576117b96114ea565b5b60006117c885828601611515565b925050602083013567ffffffffffffffff8111156117e9576117e86114ef565b5b6117f585828601611775565b9150509250929050565b600060208284031215611815576118146114ea565b5b600061182384828501611515565b91505092915050565b60008115159050919050565b6118418161182c565b82525050565b600060208201905061185c6000830184611838565b92915050565b60008060408385031215611879576118786114ea565b5b600061188785828601611515565b925050602061189885828601611515565b9150509250929050565b600067ffffffffffffffff8211156118bd576118bc611678565b5b602082029050602081019050919050565b600080fd5b60006118e66118e1846118a2565b6116d8565b90508083825260208201905060208402830185811115611909576119086118ce565b5b835b81811015611932578061191e8882611515565b84526020840193505060208101905061190b565b5050509392505050565b600082601f8301126119515761195061165d565b5b81356119618482602086016118d3565b91505092915050565b60008060408385031215611981576119806114ea565b5b600083013567ffffffffffffffff81111561199f5761199e6114ef565b5b6119ab8582860161193c565b92505060206119bc85828601611515565b9150509250929050565b7f4e487b7100000000000000000000000000000000000000000000000000000000600052603260045260246000fd5b7f4e487b7100000000000000000000000000000000000000000000000000000000600052601160045260246000fd5b6000611a2f826114f4565b91507fffffffffffffffffffffffffffffffffffffffffffffffffffffffffffffffff8203611a6157611a606119f5565b5b600182019050919050565b6000611a77826114f4565b9150611a82836114f4565b9250828201905080821115611a9a57611a996119f5565b5b92915050565b6000611aab826114f4565b915060008203611abe57611abd6119f5565b5b600182039050919050565b611ad2816114f4565b82525050565b6000606082019050611aed6000830186611ac9565b611afa6020830185611ac9565b8181036040830152611b0c81846115dd565b9050949350505050565b600082825260208201905092915050565b7f5573657220616c72656164792072656769737465726564000000000000000000600082015250565b6000611b5d601783611b16565b9150611b6882611b27565b602082019050919050565b60006020820190508181036000830152611b8c81611b50565b9050919050565b600081519050919050565b7f4e487b7100000000000000000000000000000000000000000000000000000000600052602260045260246000fd5b60006002820490506001821680611be557607f821691505b602082108103611bf857611bf7611b9e565b5b50919050565b60008190508160005260206000209050919050565b60006020601f8301049050919050565b600082821b905092915050565b600060088302611c607fffffffffffffffffffffffffffffffffffffffffffffffffffffffffffffffff82611c23565b611c6a8683611c23565b95508019841693508086168417925050509392505050565b6000819050919050565b6000611ca7611ca2611c9d846114f4565b611c82565b6114f4565b9050919050565b6000819050919050565b611cc183611c8c565b611cd5611ccd82611cae565b848454611c30565b825550505050565b600090565b611cea611cdd565b611cf5818484611cb8565b505050565b5b81811015611d1957611d0e600082611ce2565b600181019050611cfb565b5050565b601f821115611d5e57611d2f81611bfe565b611d3884611c13565b81016020851015611d47578190505b611d5b611d5385611c13565b830182611cfa565b50505b505050565b600082821c905092915050565b6000611d8160001984600802611d63565b1980831691505092915050565b6000611d9a8383611d70565b9150826002028217905092915050565b611db382611b93565b67ffffffffffffffff811115611dcc57611dcb611678565b5b611dd68254611bcd565b611de1828285611d1d565b600060209050601f831160018114611e145760008415611e02578287015190505b611e0c8582611d8e565b865550611e74565b601f198416611e2286611bfe565b60005b82811015611e4a57848901518255600182019150602085019450602081019050611e25565b86831015611e675784890151611e63601f891682611d70565b8355505b6001600288020188555050505b505050505050565b6000611e87826114f4565b9150611e92836114f4565b9250828203905081811115611eaa57611ea96119f5565b5b92915050565b60005b83811015611ece578082015181840152602081019050611eb3565b60008484015250505050565b6000611ee582611b93565b611eef8185611b16565b9350611eff818560208601611eb0565b611f0881611667565b840191505092915050565b6000604082019050611f286000830185611ac9565b8181036020830152611f3a8184611eda565b90509392505050565b7f5573657231206e6f742072656769737465726564000000000000000000000000600082015250565b6000611f79601483611b16565b9150611f8482611f43565b602082019050919050565b60006020820190508181036000830152611fa881611f6c565b9050919050565b7f5573657232206e6f742072656769737465726564000000000000000000000000600082015250565b6000611fe5601483611b16565b9150611ff082611faf565b602082019050919050565b6000602082019050818103600083015261201481611fd8565b9050919050565b600060a0820190506120306000830188611838565b61203d6020830187611ac9565b61204a6040830186611ac9565b6120576060830185611ac9565b818103608083015261206981846115dd565b90509695505050505050565b600060608201905061208a6000830186611ac9565b6120976020830185611ac9565b6120a46040830184611ac9565b949350505050565b7f4e487b7100000000000000000000000000000000000000000000000000000000600052603160045260246000fd5b7f4163636f756e74206e6f7420666f756e64000000000000000000000000000000600082015250565b6000612111601183611b16565b915061211c826120db565b602082019050919050565b6000602082019050818103600083015261214081612104565b9050919050565b600060408201905061215c6000830185611ac9565b6121696020830184611ac9565b939250505056fea264697066735822122045b97ab344f3a17d8d001ccaf30f0fe724a66f67ce3586c089a03697dbb3e15764736f6c63430008130033",
  "immutableReferences": {},
  "source": "// SPDX-License-Identifier: MIT\npragma solidity >=0.4.22 <0.9.0;\n\ncontract Payment {\n  struct User{\n    uint id;\n    string name;\n  }\n  struct Account{\n    uint partner_id;\n    uint balance;\n  }\n  mapping(uint => uint) id_index_map;\n  mapping(uint => Account[]) accounts;\n  User[] users;\n  uint[] user_ids;\n\n  event UserRegistered(uint id, string name);\n  event AccountCreated(uint id, uint partner_id, uint balance);\n  event TransactionStatus(bool success,uint id1, uint id2, uint amount,uint[] path);\n  event AccountClosed(uint id1, uint id2);\n  event ShortestPath(uint id1,uint id2,uint[] path);\n\n  function doesUserExist(uint _id) public view returns(bool){\n    for(uint i = 0; i < user_ids.length; i++){\n      if(user_ids[i] == _id){\n        return true;\n      }\n    }\n    return false;\n  }\n  function registerUser(uint _id, string memory _name) public {\n    require(!doesUserExist(_id), \"User already registered\");\n    users.push(User(_id, _name));\n    user_ids.push(_id);\n    id_index_map[_id] = users.length - 1;\n    emit UserRegistered(_id, _name);\n  } \n\n  function createAcc(uint _id1, uint _id2, uint _balance) public {\n    require(doesUserExist(_id1), \"User1 not registered\");\n    require(doesUserExist(_id2), \"User2 not registered\");\n    uint index1 = id_index_map[_id1];\n    uint index2 = id_index_map[_id2];\n    accounts[index1].push(Account(index2, _balance));\n    accounts[index2].push(Account(index1, _balance));\n    emit AccountCreated(_id1, _id2, _balance);\n  }\n\n  function getShortestPath(uint start,uint end,uint amount) public returns(uint[] memory){\n    // use bfs to find the shortest path\n    bool[] memory visited = new bool[](user_ids.length);\n    uint[] memory parent = new uint[](user_ids.length);\n    uint[] memory distance = new uint[](user_ids.length);\n\n    for(uint i = 0; i < user_ids.length; i++){\n      visited[i] = false;\n      parent[i] = type(uint).max;\n      distance[i] = type(uint).max;\n    }\n\n    uint[] memory queue = new uint[](user_ids.length);\n    uint front = 0;\n    uint rear = 0;\n    queue[rear++] = start;\n\n    visited[start] = true;\n    distance[start] = 0;\n    parent[start] = start;\n\n    while(front < rear){\n      uint curr = queue[front++];\n      for(uint i = 0; i < accounts[curr].length; i++){\n        uint next = accounts[curr][i].partner_id;\n        if(!visited[next]){\n          if(accounts[curr][i].balance < amount){\n            continue;\n          }\n          visited[next] = true;\n          distance[next] = distance[curr] + 1;\n          parent[next] = curr;\n          queue[rear++] = next;\n          if(next == end){\n            uint[] memory path = new uint[](distance[end] + 1);\n            curr = end;\n            uint index = distance[end];\n            while(curr != start){\n              path[index--] = curr;\n              curr = parent[curr];\n            }\n            path[index] = start;\n            emit ShortestPath(start,end,path);\n            return path;\n          }\n        }\n      }\n    }\n    emit ShortestPath(start,end,new uint[](0));\n    return new uint[](0);\n  }\n\n  function canBeSent(uint[] memory path, uint _amount) public view returns(bool){\n    for(uint i=0;i<(path.length-1);i++){\n      uint curr = path[i];\n      uint next = path[i+1];\n      for(uint j=0;j<accounts[curr].length;j++){\n        if(accounts[curr][j].partner_id == next){\n          if(accounts[curr][j].balance < _amount){\n            return false;\n          }\n          break;\n        }\n      }\n    }\n    return true;\n  }\n\n  function sendAlongPath(uint[] memory path, uint _amount) public {\n    for(uint i=0;i<(path.length-1);i++){\n      uint curr = path[i];\n      uint next = path[i+1];\n      for(uint j=0;j<accounts[curr].length;j++){\n        if(accounts[curr][j].partner_id == next){\n          accounts[curr][j].balance -= _amount;\n          break;\n        }\n      }\n      for(uint j=0;j<accounts[next].length;j++){\n        if(accounts[next][j].partner_id == curr){\n          accounts[next][j].balance += _amount;\n          break;\n        }\n      }\n    }\n  }\n\n\n\n  function sendAmount(uint _id1, uint _id2, uint _amount) public {\n    require(doesUserExist(_id1), \"User1 not registered\");\n    require(doesUserExist(_id2), \"User2 not registered\");\n    \n    uint index1 = id_index_map[_id1];\n    uint index2 = id_index_map[_id2];\n    uint[] memory path = getShortestPath(index1, index2,_amount);\n    if(path.length == 0){\n      emit TransactionStatus(false,_id1, _id2, _amount, path);\n      return;\n    }\n    if(canBeSent(path, _amount)){\n      sendAlongPath(path, _amount);\n      emit TransactionStatus(true,_id1, _id2, _amount, path);\n      return;\n    }\n    emit TransactionStatus(false,_id1, _id2, _amount, path);\n    return;\n  }\n\n  function closeAccount(uint _id1, uint _id2) public {\n    require(doesUserExist(_id1), \"User1 not registered\");\n    require(doesUserExist(_id2), \"User2 not registered\");\n    uint index1 = id_index_map[_id1];\n    uint index2 = id_index_map[_id2];\n    bool found = false;\n    for(uint i = 0; i < accounts[index1].length; i++){\n      if(accounts[index1][i].partner_id == index2){\n        found = true;\n        accounts[index1][i] = accounts[index1][accounts[index1].length - 1];\n        accounts[index1].pop();\n        break;\n      }\n    }\n    for(uint i = 0; i < accounts[index2].length; i++){\n      if(accounts[index2][i].partner_id == index1){\n        accounts[index2][i] = accounts[index2][accounts[index2].length - 1];\n        accounts[index2].pop();\n        break;\n      }\n    }\n    require(found, \"Account not found\");\n    emit AccountClosed(_id1, _id2);\n  }\n}\n",
  "sourcePath": "/Users/nsr/765/ass3/contracts/Payment.sol",
  "compiler": {
    "name": "solc",
    "version": "0.8.19+commit.7dd6d404.Emscripten.clang"
  },
  "schemaVersion": "3.4.13",
  "updatedAt": "2023-04-11T12:22:46.663Z",
  "networkType": "ethereum",
  "devdoc": {
    "kind": "dev",
    "methods": {},
    "version": 1
  },
  "userdoc": {
    "kind": "user",
    "methods": {},
    "version": 1
  }
}