{
  "contractName": "Payment",
  "abi": [
    {
      "anonymous": false,
      "inputs": [
        {
          "indexed": false,
          "internalType": "uint256",
          "name": "id1",
          "type": "uint256"
        },
        {
          "indexed": false,
          "internalType": "uint256",
          "name": "id2",
          "type": "uint256"
        }
      ],
      "name": "AccountClosed",
      "type": "event"
    },
    {
      "anonymous": false,
      "inputs": [
        {
          "indexed": false,
          "internalType": "uint256",
          "name": "id",
          "type": "uint256"
        },
        {
          "indexed": false,
          "internalType": "uint256",
          "name": "partner_id",
          "type": "uint256"
        },
        {
          "indexed": false,
          "internalType": "uint256",
          "name": "balance",
          "type": "uint256"
        }
      ],
      "name": "AccountCreated",
      "type": "event"
    },
    {
      "anonymous": false,
      "inputs": [
        {
          "indexed": false,
          "internalType": "uint256",
          "name": "id1",
          "type": "uint256"
        },
        {
          "indexed": false,
          "internalType": "uint256",
          "name": "id2",
          "type": "uint256"
        },
        {
          "indexed": false,
          "internalType": "uint256[]",
          "name": "path",
          "type": "uint256[]"
        }
      ],
      "name": "ShortestPath",
      "type": "event"
    },
    {
      "anonymous": false,
      "inputs": [
        {
          "indexed": false,
          "internalType": "bool",
          "name": "success",
          "type": "bool"
        },
        {
          "indexed": false,
          "internalType": "uint256",
          "name": "id1",
          "type": "uint256"
        },
        {
          "indexed": false,
          "internalType": "uint256",
          "name": "id2",
          "type": "uint256"
        },
        {
          "indexed": false,
          "internalType": "uint256",
          "name": "amount",
          "type": "uint256"
        },
        {
          "indexed": false,
          "internalType": "uint256[]",
          "name": "path",
          "type": "uint256[]"
        }
      ],
      "name": "TransactionStatus",
      "type": "event"
    },
    {
      "anonymous": false,
      "inputs": [
        {
          "indexed": false,
          "internalType": "uint256",
          "name": "id",
          "type": "uint256"
        },
        {
          "indexed": false,
          "internalType": "string",
          "name": "name",
          "type": "string"
        }
      ],
      "name": "UserRegistered",
      "type": "event"
    },
    {
      "inputs": [
        {
          "internalType": "uint256",
          "name": "_id",
          "type": "uint256"
        }
      ],
      "name": "doesUserExist",
      "outputs": [
        {
          "internalType": "bool",
          "name": "",
          "type": "bool"
        }
      ],
      "stateMutability": "view",
      "type": "function",
      "constant": true
    },
    {
      "inputs": [
        {
          "internalType": "uint256",
          "name": "_id",
          "type": "uint256"
        },
        {
          "internalType": "string",
          "name": "_name",
          "type": "string"
        }
      ],
      "name": "registerUser",
      "outputs": [],
      "stateMutability": "nonpayable",
      "type": "function"
    },
    {
      "inputs": [
        {
          "internalType": "uint256",
          "name": "_id1",
          "type": "uint256"
        },
        {
          "internalType": "uint256",
          "name": "_id2",
          "type": "uint256"
        },
        {
          "internalType": "uint256",
          "name": "_balance",
          "type": "uint256"
        }
      ],
      "name": "createAcc",
      "outputs": [],
      "stateMutability": "nonpayable",
      "type": "function"
    },
    {
      "inputs": [
        {
          "internalType": "uint256",
          "name": "start",
          "type": "uint256"
        },
        {
          "internalType": "uint256",
          "name": "end",
          "type": "uint256"
        }
      ],
      "name": "getShortestPath",
      "outputs": [
        {
          "internalType": "uint256[]",
          "name": "",
          "type": "uint256[]"
        }
      ],
      "stateMutability": "nonpayable",
      "type": "function"
    },
    {
      "inputs": [
        {
          "internalType": "uint256[]",
          "name": "path",
          "type": "uint256[]"
        },
        {
          "internalType": "uint256",
          "name": "_amount",
          "type": "uint256"
        }
      ],
      "name": "canBeSent",
      "outputs": [
        {
          "internalType": "bool",
          "name": "",
          "type": "bool"
        }
      ],
      "stateMutability": "view",
      "type": "function",
      "constant": true
    },
    {
      "inputs": [
        {
          "internalType": "uint256[]",
          "name": "path",
          "type": "uint256[]"
        },
        {
          "internalType": "uint256",
          "name": "_amount",
          "type": "uint256"
        }
      ],
      "name": "sendAlongPath",
      "outputs": [],
      "stateMutability": "nonpayable",
      "type": "function"
    },
    {
      "inputs": [
        {
          "internalType": "uint256",
          "name": "_id1",
          "type": "uint256"
        },
        {
          "internalType": "uint256",
          "name": "_id2",
          "type": "uint256"
        },
        {
          "internalType": "uint256",
          "name": "_amount",
          "type": "uint256"
        }
      ],
      "name": "sendAmount",
      "outputs": [],
      "stateMutability": "nonpayable",
      "type": "function"
    },
    {
      "inputs": [
        {
          "internalType": "uint256",
          "name": "_id1",
          "type": "uint256"
        },
        {
          "internalType": "uint256",
          "name": "_id2",
          "type": "uint256"
        }
      ],
      "name": "closeAccount",
      "outputs": [],
      "stateMutability": "nonpayable",
      "type": "function"
    }
  ],
  "bytecode": "0x608060405234801561001057600080fd5b5061215f806100206000396000f3fe608060405234801561001057600080fd5b50600436106100885760003560e01c8063b54834811161005b578063b548348114610125578063bd45d6eb14610141578063c924e1061461015d578063f943c9551461017957610088565b80631c57333e1461008d5780632ee23e6d146100a95780633f3078df146100d957806363a57998146100f5575b600080fd5b6100a760048036038101906100a29190611629565b6101a9565b005b6100c360048036038101906100be9190611685565b6102e2565b6040516100d09190611783565b60405180910390f35b6100f360048036038101906100ee91906117a5565b61094f565b005b61010f600480360381019061010a91906117f8565b610b16565b60405161011c9190611840565b60405180910390f35b61013f600480360381019061013a91906117a5565b610b78565b005b61015b60048036038101906101569190611685565b610d46565b005b61017760048036038101906101729190611923565b61114b565b005b610193600480360381019061018e9190611923565b61134f565b6040516101a09190611840565b60405180910390f35b6101b282610b16565b156101f2576040517f08c379a00000000000000000000000000000000000000000000000000000000081526004016101e9906119dc565b60405180910390fd5b600260405180604001604052808481526020018381525090806001815401808255809150506001900390600052602060002090600202016000909190919091506000820151816000015560208201518160010190816102519190611c13565b5050506003829080600181540180825580915050600190039060005260206000200160009091909190915055600160028054905061028f9190611d14565b600080848152602001908152602001600020819055507f4728104627c0775370e4d3628beda1b22b0bef17538f721f8e4d92976ce2082382826040516102d6929190611dba565b60405180910390a15050565b6060600060038054905067ffffffffffffffff811115610305576103046114fe565b5b6040519080825280602002602001820160405280156103335781602001602082028036833780820191505090505b509050600060038054905067ffffffffffffffff811115610357576103566114fe565b5b6040519080825280602002602001820160405280156103855781602001602082028036833780820191505090505b509050600060038054905067ffffffffffffffff8111156103a9576103a86114fe565b5b6040519080825280602002602001820160405280156103d75781602001602082028036833780820191505090505b50905060005b6003805490508110156104a45760008482815181106103ff576103fe611dea565b5b6020026020010190151590811515815250507fffffffffffffffffffffffffffffffffffffffffffffffffffffffffffffffff83828151811061044557610444611dea565b5b6020026020010181815250507fffffffffffffffffffffffffffffffffffffffffffffffffffffffffffffffff82828151811061048557610484611dea565b5b602002602001018181525050808061049c90611e19565b9150506103dd565b50600060038054905067ffffffffffffffff8111156104c6576104c56114fe565b5b6040519080825280602002602001820160405280156104f45781602001602082028036833780820191505090505b5090506000808883828061050790611e19565b93508151811061051a57610519611dea565b5b6020026020010181815250506001868a8151811061053b5761053a611dea565b5b6020026020010190151590811515815250506000848a8151811061056257610561611dea565b5b60200260200101818152505088858a8151811061058257610581611dea565b5b6020026020010181815250505b808210156108725760008383806105a590611e19565b9450815181106105b8576105b7611dea565b5b6020026020010151905060005b600160008381526020019081526020016000208054905081101561086b57600060016000848152602001908152602001600020828154811061060a57610609611dea565b5b906000526020600020906002020160000154905088818151811061063157610630611dea565b5b602002602001015161085757600189828151811061065257610651611dea565b5b602002602001019015159081151581525050600187848151811061067957610678611dea565b5b602002602001015161068b9190611e61565b87828151811061069e5761069d611dea565b5b602002602001018181525050828882815181106106be576106bd611dea565b5b602002602001018181525050808685806106d790611e19565b9650815181106106ea576106e9611dea565b5b6020026020010181815250508a81036108565760006001888d8151811061071457610713611dea565b5b60200260200101516107269190611e61565b67ffffffffffffffff81111561073f5761073e6114fe565b5b60405190808252806020026020018201604052801561076d5781602001602082028036833780820191505090505b5090508b93506000888d8151811061078857610787611dea565b5b602002602001015190505b8d85146107e857848282806107a790611e95565b9350815181106107ba576107b9611dea565b5b6020026020010181815250508985815181106107d9576107d8611dea565b5b60200260200101519450610793565b8d8282815181106107fc576107fb611dea565b5b6020026020010181815250507f95ae0e3e092b8f5cba5966f1ecb11177d4ade85dc0515e7c0ca2558a653c86298e8e8460405161083b93929190611ebe565b60405180910390a1819b505050505050505050505050610949565b5b50808061086390611e19565b9150506105c5565b505061058f565b7f95ae0e3e092b8f5cba5966f1ecb11177d4ade85dc0515e7c0ca2558a653c86298989600067ffffffffffffffff8111156108b0576108af6114fe565b5b6040519080825280602002602001820160405280156108de5781602001602082028036833780820191505090505b506040516108ee93929190611ebe565b60405180910390a1600067ffffffffffffffff811115610911576109106114fe565b5b60405190808252806020026020018201604052801561093f5781602001602082028036833780820191505090505b5096505050505050505b92915050565b61095883610b16565b610997576040517f08c379a000000000000000000000000000000000000000000000000000000000815260040161098e90611f48565b60405180910390fd5b6109a082610b16565b6109df576040517f08c379a00000000000000000000000000000000000000000000000000000000081526004016109d690611fb4565b60405180910390fd5b600080600085815260200190815260200160002054905060008060008581526020019081526020016000205490506000610a1983836102e2565b90506000815103610a6c577fd20d3da8a2227b445917df978d31ae5c865631e689305f8e209ce666511a222d600087878785604051610a5c959493929190611fd4565b60405180910390a1505050610b11565b610a76818561134f565b15610acd57610a85818561114b565b7fd20d3da8a2227b445917df978d31ae5c865631e689305f8e209ce666511a222d600187878785604051610abd959493929190611fd4565b60405180910390a1505050610b11565b7fd20d3da8a2227b445917df978d31ae5c865631e689305f8e209ce666511a222d600087878785604051610b05959493929190611fd4565b60405180910390a15050505b505050565b600080600090505b600380549050811015610b6d578260038281548110610b4057610b3f611dea565b5b906000526020600020015403610b5a576001915050610b73565b8080610b6590611e19565b915050610b1e565b50600090505b919050565b610b8183610b16565b610bc0576040517f08c379a0000000000000000000000000000000000000000000000000000000008152600401610bb790611f48565b60405180910390fd5b610bc982610b16565b610c08576040517f08c379a0000000000000000000000000000000000000000000000000000000008152600401610bff90611fb4565b60405180910390fd5b6000806000858152602001908152602001600020549050600080600085815260200190815260200160002054905060016000838152602001908152602001600020604051806040016040528083815260200185815250908060018154018082558091505060019003906000526020600020906002020160009091909190915060008201518160000155602082015181600101555050600160008281526020019081526020016000206040518060400160405280848152602001858152509080600181540180825580915050600190039060005260206000209060020201600090919091909150600082015181600001556020820151816001015550507f40bb7bf4c7f281ed15816d9be583f4a9c800fde6f80ff9d5bd68015b03f5695b858585604051610d379392919061202e565b60405180910390a15050505050565b610d4f82610b16565b610d8e576040517f08c379a0000000000000000000000000000000000000000000000000000000008152600401610d8590611f48565b60405180910390fd5b610d9781610b16565b610dd6576040517f08c379a0000000000000000000000000000000000000000000000000000000008152600401610dcd90611fb4565b60405180910390fd5b600080600084815260200190815260200160002054905060008060008481526020019081526020016000205490506000805b6001600085815260200190815260200160002080549050811015610f695782600160008681526020019081526020016000208281548110610e4c57610e4b611dea565b5b90600052602060002090600202016000015403610f56576001915060016000858152602001908152602001600020600180600087815260200190815260200160002080549050610e9c9190611d14565b81548110610ead57610eac611dea565b5b9060005260206000209060020201600160008681526020019081526020016000208281548110610ee057610edf611dea565b5b9060005260206000209060020201600082015481600001556001820154816001015590505060016000858152602001908152602001600020805480610f2857610f27612065565b5b6001900381819060005260206000209060020201600080820160009055600182016000905550509055610f69565b8080610f6190611e19565b915050610e08565b5060005b60016000848152602001908152602001600020805490508110156110ca5783600160008581526020019081526020016000208281548110610fb157610fb0611dea565b5b906000526020600020906002020160000154036110b75760016000848152602001908152602001600020600180600086815260200190815260200160002080549050610ffd9190611d14565b8154811061100e5761100d611dea565b5b906000526020600020906002020160016000858152602001908152602001600020828154811061104157611040611dea565b5b906000526020600020906002020160008201548160000155600182015481600101559050506001600084815260200190815260200160002080548061108957611088612065565b5b60019003818190600052602060002090600202016000808201600090556001820160009055505090556110ca565b80806110c290611e19565b915050610f6d565b508061110b576040517f08c379a0000000000000000000000000000000000000000000000000000000008152600401611102906120e0565b60405180910390fd5b7fefbc56ab5dac29c99b9169c4c6fb4dc3c4ab6e793711f81bd6a426a99b9d77fc858560405161113c929190612100565b60405180910390a15050505050565b60005b6001835161115c9190611d14565b81101561134a57600083828151811061117857611177611dea565b5b602002602001015190506000846001846111929190611e61565b815181106111a3576111a2611dea565b5b6020026020010151905060005b600160008481526020019081526020016000208054905081101561127057816001600085815260200190815260200160002082815481106111f4576111f3611dea565b5b9060005260206000209060020201600001540361125d578460016000858152602001908152602001600020828154811061123157611230611dea565b5b906000526020600020906002020160010160008282546112519190611d14565b92505081905550611270565b808061126890611e19565b9150506111b0565b5060005b600160008381526020019081526020016000208054905081101561133457826001600084815260200190815260200160002082815481106112b8576112b7611dea565b5b9060005260206000209060020201600001540361132157846001600084815260200190815260200160002082815481106112f5576112f4611dea565b5b906000526020600020906002020160010160008282546113159190611e61565b92505081905550611334565b808061132c90611e19565b915050611274565b505050808061134290611e19565b91505061114e565b505050565b600080600090505b600184516113659190611d14565b81101561148d57600084828151811061138157611380611dea565b5b6020026020010151905060008560018461139b9190611e61565b815181106113ac576113ab611dea565b5b6020026020010151905060005b600160008481526020019081526020016000208054905081101561147757816001600085815260200190815260200160002082815481106113fd576113fc611dea565b5b90600052602060002090600202016000015403611464578560016000858152602001908152602001600020828154811061143a57611439611dea565b5b906000526020600020906002020160010154101561145f576000945050505050611493565b611477565b808061146f90611e19565b9150506113b9565b505050808061148590611e19565b915050611357565b50600190505b92915050565b6000604051905090565b600080fd5b600080fd5b6000819050919050565b6114c0816114ad565b81146114cb57600080fd5b50565b6000813590506114dd816114b7565b92915050565b600080fd5b600080fd5b6000601f19601f8301169050919050565b7f4e487b7100000000000000000000000000000000000000000000000000000000600052604160045260246000fd5b611536826114ed565b810181811067ffffffffffffffff82111715611555576115546114fe565b5b80604052505050565b6000611568611499565b9050611574828261152d565b919050565b600067ffffffffffffffff821115611594576115936114fe565b5b61159d826114ed565b9050602081019050919050565b82818337600083830152505050565b60006115cc6115c784611579565b61155e565b9050828152602081018484840111156115e8576115e76114e8565b5b6115f38482856115aa565b509392505050565b600082601f8301126116105761160f6114e3565b5b81356116208482602086016115b9565b91505092915050565b600080604083850312156116405761163f6114a3565b5b600061164e858286016114ce565b925050602083013567ffffffffffffffff81111561166f5761166e6114a8565b5b61167b858286016115fb565b9150509250929050565b6000806040838503121561169c5761169b6114a3565b5b60006116aa858286016114ce565b92505060206116bb858286016114ce565b9150509250929050565b600081519050919050565b600082825260208201905092915050565b6000819050602082019050919050565b6116fa816114ad565b82525050565b600061170c83836116f1565b60208301905092915050565b6000602082019050919050565b6000611730826116c5565b61173a81856116d0565b9350611745836116e1565b8060005b8381101561177657815161175d8882611700565b975061176883611718565b925050600181019050611749565b5085935050505092915050565b6000602082019050818103600083015261179d8184611725565b905092915050565b6000806000606084860312156117be576117bd6114a3565b5b60006117cc868287016114ce565b93505060206117dd868287016114ce565b92505060406117ee868287016114ce565b9150509250925092565b60006020828403121561180e5761180d6114a3565b5b600061181c848285016114ce565b91505092915050565b60008115159050919050565b61183a81611825565b82525050565b60006020820190506118556000830184611831565b92915050565b600067ffffffffffffffff821115611876576118756114fe565b5b602082029050602081019050919050565b600080fd5b600061189f61189a8461185b565b61155e565b905080838252602082019050602084028301858111156118c2576118c1611887565b5b835b818110156118eb57806118d788826114ce565b8452602084019350506020810190506118c4565b5050509392505050565b600082601f83011261190a576119096114e3565b5b813561191a84826020860161188c565b91505092915050565b6000806040838503121561193a576119396114a3565b5b600083013567ffffffffffffffff811115611958576119576114a8565b5b611964858286016118f5565b9250506020611975858286016114ce565b9150509250929050565b600082825260208201905092915050565b7f5573657220616c72656164792072656769737465726564000000000000000000600082015250565b60006119c660178361197f565b91506119d182611990565b602082019050919050565b600060208201905081810360008301526119f5816119b9565b9050919050565b600081519050919050565b7f4e487b7100000000000000000000000000000000000000000000000000000000600052602260045260246000fd5b60006002820490506001821680611a4e57607f821691505b602082108103611a6157611a60611a07565b5b50919050565b60008190508160005260206000209050919050565b60006020601f8301049050919050565b600082821b905092915050565b600060088302611ac97fffffffffffffffffffffffffffffffffffffffffffffffffffffffffffffffff82611a8c565b611ad38683611a8c565b95508019841693508086168417925050509392505050565b6000819050919050565b6000611b10611b0b611b06846114ad565b611aeb565b6114ad565b9050919050565b6000819050919050565b611b2a83611af5565b611b3e611b3682611b17565b848454611a99565b825550505050565b600090565b611b53611b46565b611b5e818484611b21565b505050565b5b81811015611b8257611b77600082611b4b565b600181019050611b64565b5050565b601f821115611bc757611b9881611a67565b611ba184611a7c565b81016020851015611bb0578190505b611bc4611bbc85611a7c565b830182611b63565b50505b505050565b600082821c905092915050565b6000611bea60001984600802611bcc565b1980831691505092915050565b6000611c038383611bd9565b9150826002028217905092915050565b611c1c826119fc565b67ffffffffffffffff811115611c3557611c346114fe565b5b611c3f8254611a36565b611c4a828285611b86565b600060209050601f831160018114611c7d5760008415611c6b578287015190505b611c758582611bf7565b865550611cdd565b601f198416611c8b86611a67565b60005b82811015611cb357848901518255600182019150602085019450602081019050611c8e565b86831015611cd05784890151611ccc601f891682611bd9565b8355505b6001600288020188555050505b505050505050565b7f4e487b7100000000000000000000000000000000000000000000000000000000600052601160045260246000fd5b6000611d1f826114ad565b9150611d2a836114ad565b9250828203905081811115611d4257611d41611ce5565b5b92915050565b611d51816114ad565b82525050565b60005b83811015611d75578082015181840152602081019050611d5a565b60008484015250505050565b6000611d8c826119fc565b611d96818561197f565b9350611da6818560208601611d57565b611daf816114ed565b840191505092915050565b6000604082019050611dcf6000830185611d48565b8181036020830152611de18184611d81565b90509392505050565b7f4e487b7100000000000000000000000000000000000000000000000000000000600052603260045260246000fd5b6000611e24826114ad565b91507fffffffffffffffffffffffffffffffffffffffffffffffffffffffffffffffff8203611e5657611e55611ce5565b5b600182019050919050565b6000611e6c826114ad565b9150611e77836114ad565b9250828201905080821115611e8f57611e8e611ce5565b5b92915050565b6000611ea0826114ad565b915060008203611eb357611eb2611ce5565b5b600182039050919050565b6000606082019050611ed36000830186611d48565b611ee06020830185611d48565b8181036040830152611ef28184611725565b9050949350505050565b7f5573657231206e6f742072656769737465726564000000000000000000000000600082015250565b6000611f3260148361197f565b9150611f3d82611efc565b602082019050919050565b60006020820190508181036000830152611f6181611f25565b9050919050565b7f5573657232206e6f742072656769737465726564000000000000000000000000600082015250565b6000611f9e60148361197f565b9150611fa982611f68565b602082019050919050565b60006020820190508181036000830152611fcd81611f91565b9050919050565b600060a082019050611fe96000830188611831565b611ff66020830187611d48565b6120036040830186611d48565b6120106060830185611d48565b81810360808301526120228184611725565b90509695505050505050565b60006060820190506120436000830186611d48565b6120506020830185611d48565b61205d6040830184611d48565b949350505050565b7f4e487b7100000000000000000000000000000000000000000000000000000000600052603160045260246000fd5b7f4163636f756e74206e6f7420666f756e64000000000000000000000000000000600082015250565b60006120ca60118361197f565b91506120d582612094565b602082019050919050565b600060208201905081810360008301526120f9816120bd565b9050919050565b60006040820190506121156000830185611d48565b6121226020830184611d48565b939250505056fea2646970667358221220da76a7ccf40ad4535f3eb4097cad1a14571e5bbfdf712b33cdd3c6921b4ac76b64736f6c63430008130033",
  "immutableReferences": {},
  "source": "// SPDX-License-Identifier: MIT\npragma solidity >=0.4.22 <0.9.0;\n\ncontract Payment {\n  struct User{\n    uint id;\n    string name;\n  }\n  struct Account{\n    uint partner_id;\n    uint balance;\n  }\n  mapping(uint => uint) id_index_map;\n  mapping(uint => Account[]) accounts;\n  User[] users;\n  uint[] user_ids;\n\n  event UserRegistered(uint id, string name);\n  event AccountCreated(uint id, uint partner_id, uint balance);\n  event TransactionStatus(bool success,uint id1, uint id2, uint amount,uint[] path);\n  event AccountClosed(uint id1, uint id2);\n  event ShortestPath(uint id1,uint id2,uint[] path);\n\n  function doesUserExist(uint _id) public view returns(bool){\n    for(uint i = 0; i < user_ids.length; i++){\n      if(user_ids[i] == _id){\n        return true;\n      }\n    }\n    return false;\n  }\n  function registerUser(uint _id, string memory _name) public {\n    require(!doesUserExist(_id), \"User already registered\");\n    users.push(User(_id, _name));\n    user_ids.push(_id);\n    id_index_map[_id] = users.length - 1;\n    emit UserRegistered(_id, _name);\n  } \n\n  function createAcc(uint _id1, uint _id2, uint _balance) public {\n    require(doesUserExist(_id1), \"User1 not registered\");\n    require(doesUserExist(_id2), \"User2 not registered\");\n    uint index1 = id_index_map[_id1];\n    uint index2 = id_index_map[_id2];\n    accounts[index1].push(Account(index2, _balance));\n    accounts[index2].push(Account(index1, _balance));\n    emit AccountCreated(_id1, _id2, _balance);\n  }\n\n  function getShortestPath(uint start,uint end) public returns(uint[] memory){\n    // use bfs to find the shortest path\n    bool[] memory visited = new bool[](user_ids.length);\n    uint[] memory parent = new uint[](user_ids.length);\n    uint[] memory distance = new uint[](user_ids.length);\n\n    for(uint i = 0; i < user_ids.length; i++){\n      visited[i] = false;\n      parent[i] = type(uint).max;\n      distance[i] = type(uint).max;\n    }\n\n    uint[] memory queue = new uint[](user_ids.length);\n    uint front = 0;\n    uint rear = 0;\n    queue[rear++] = start;\n\n    visited[start] = true;\n    distance[start] = 0;\n    parent[start] = start;\n\n    while(front < rear){\n      uint curr = queue[front++];\n      for(uint i = 0; i < accounts[curr].length; i++){\n        uint next = accounts[curr][i].partner_id;\n        if(!visited[next]){\n          visited[next] = true;\n          distance[next] = distance[curr] + 1;\n          parent[next] = curr;\n          queue[rear++] = next;\n          if(next == end){\n            uint[] memory path = new uint[](distance[end] + 1);\n            curr = end;\n            uint index = distance[end];\n            while(curr != start){\n              path[index--] = curr;\n              curr = parent[curr];\n            }\n            path[index] = start;\n            emit ShortestPath(start,end,path);\n            return path;\n          }\n        }\n      }\n    }\n    emit ShortestPath(start,end,new uint[](0));\n    return new uint[](0);\n  }\n\n  function canBeSent(uint[] memory path, uint _amount) public view returns(bool){\n    for(uint i=0;i<(path.length-1);i++){\n      uint curr = path[i];\n      uint next = path[i+1];\n      for(uint j=0;j<accounts[curr].length;j++){\n        if(accounts[curr][j].partner_id == next){\n          if(accounts[curr][j].balance < _amount){\n            return false;\n          }\n          break;\n        }\n      }\n    }\n    return true;\n  }\n\n  function sendAlongPath(uint[] memory path, uint _amount) public {\n    for(uint i=0;i<(path.length-1);i++){\n      uint curr = path[i];\n      uint next = path[i+1];\n      for(uint j=0;j<accounts[curr].length;j++){\n        if(accounts[curr][j].partner_id == next){\n          accounts[curr][j].balance -= _amount;\n          break;\n        }\n      }\n      for(uint j=0;j<accounts[next].length;j++){\n        if(accounts[next][j].partner_id == curr){\n          accounts[next][j].balance += _amount;\n          break;\n        }\n      }\n    }\n  }\n\n\n\n  function sendAmount(uint _id1, uint _id2, uint _amount) public {\n    require(doesUserExist(_id1), \"User1 not registered\");\n    require(doesUserExist(_id2), \"User2 not registered\");\n    \n    uint index1 = id_index_map[_id1];\n    uint index2 = id_index_map[_id2];\n    uint[] memory path = getShortestPath(index1, index2);\n    if(path.length == 0){\n      emit TransactionStatus(false,_id1, _id2, _amount, path);\n      return;\n    }\n    if(canBeSent(path, _amount)){\n      sendAlongPath(path, _amount);\n      emit TransactionStatus(true,_id1, _id2, _amount, path);\n      return;\n    }\n    emit TransactionStatus(false,_id1, _id2, _amount, path);\n    return;\n  }\n\n  function closeAccount(uint _id1, uint _id2) public {\n    require(doesUserExist(_id1), \"User1 not registered\");\n    require(doesUserExist(_id2), \"User2 not registered\");\n    uint index1 = id_index_map[_id1];\n    uint index2 = id_index_map[_id2];\n    bool found = false;\n    for(uint i = 0; i < accounts[index1].length; i++){\n      if(accounts[index1][i].partner_id == index2){\n        found = true;\n        accounts[index1][i] = accounts[index1][accounts[index1].length - 1];\n        accounts[index1].pop();\n        break;\n      }\n    }\n    for(uint i = 0; i < accounts[index2].length; i++){\n      if(accounts[index2][i].partner_id == index1){\n        accounts[index2][i] = accounts[index2][accounts[index2].length - 1];\n        accounts[index2].pop();\n        break;\n      }\n    }\n    require(found, \"Account not found\");\n    emit AccountClosed(_id1, _id2);\n  }\n}\n",
  "sourcePath": "/Users/nsr/765/ass3/contracts/Payment.sol",
  "compiler": {
    "name": "solc",
    "version": "0.8.19+commit.7dd6d404.Emscripten.clang"
  },
  "schemaVersion": "3.4.13",
  "updatedAt": "2023-04-11T06:11:49.395Z",
  "networkType": "ethereum",
  "devdoc": {
    "kind": "dev",
    "methods": {},
    "version": 1
  },
  "userdoc": {
    "kind": "user",
    "methods": {},
    "version": 1
  }
}